:020000040800F2
:100000008807002005010008F3130008A11200086A
:10001000F11300089B02000891170008000000007F
:100020000000000000000000000000000D150008A6
:100030009D02000800000000F51300080F150008DD
:100040001F0100081F0100081F0100081F01000810
:100050001F0100081F0100081F0100081F01000800
:100060001F0100081F0100081F0100081F010008F0
:100070001F0100081F0100081F0100081F010008E0
:100080001F0100081F0100081F0100081F010008D0
:100090001F0100081F0100081F0100081F010008C0
:1000A0001F0100081F0100081F0100081F010008B0
:1000B0001F0100081F0100081F0100081F010008A0
:1000C0001F0100081F0100081F0100081F01000890
:1000D0001F010008851700081F0100081F01000804
:1000E0001F0100081F0100081F010008DFF810D0E1
:1000F00000F0B2F80048004799230008AFF30080F1
:10010000880700200648804706480047FEE7FEE7CC
:10011000FEE7FEE7FEE7FEE7FEE7FEE7FEE7FEE7B7
:1001200071150008ED0000082DE9F0410024061BC0
:10013000254671F1000605DA01240027D0EB0700FF
:1001400067EB0101161E73F1000605DA0027D2EBFA
:100150000702012567EB030300F04DF886460E46C3
:1001600017469C46AC4204D00025D0EB050E65EB4B
:10017000010624B10020D2EB000760EB030C7046AF
:1001800031463A466346BDE8F081202A04DB203A36
:1001900021FA02F00021704721FA02F3D040C2F1A7
:1001A00020029140084319467047D2B201E000F89E
:1001B000012B491EFBD270470022F6E710B513460B
:1001C0000A4604461946FFF7F0FF204610BD421CC0
:1001D00010F8011B0029FBD1801A704730B5044686
:1001E0000020034600E05B1C934203D2E05CCD5C40
:1001F000401BF8D030BD2DE9F05F05460020924647
:100200009B4688460646814640241BE028464146D8
:1002100047462246FFF7B9FF53465A46C01A914156
:1002200010D311461846224600F028F82D1A67EB25
:1002300001084F4622460120002100F01FF817EB6D
:1002400000094E41201EA4F10104DFDC484631467E
:100250002A464346BDE8F09F064C074D06E0E0689D
:1002600040F0010394E8070098471034AC42F6D3FD
:10027000FFF740FF90250008B0250008202A04DB86
:10028000203A00FA02F1002070479140C2F12003A9
:1002900020FA03F3194390407047FEE7704772B6A7
:1002A000FEE710B590F821100022022905D00421A4
:1002B000816380F82020012010BD01680B6823F0C5
:1002C0000E030B6001680B6823F001030B6090F8CC
:1002D0004030C46B012101FA03F3636080F8211000
:1002E00080F82020104610BD10B590F82110002491
:1002F000022903D00421816301243DE001680A68DA
:1003000022F00E020A6001680A6822F001020A6007
:100310001A4A0168914201D1012121E0174A1432A1
:10032000914201D110211BE0144A2832914201D19F
:10033000891515E0114A3C32914201D189140FE030
:100340000E4A5032914202D14FF4803108E00B4AFC
:100350006432914202D14FF4801101E04FF080717C
:10036000064A083A5160012180F82110002180F8E6
:100370002010416B01B18847204610BD08000240A3
:1003800070B5044600F004F90546601C02D004482C
:100390000078044400F0FCF8401BA042FAD370BD82
:1003A0009C0000202DE9F84FDFF8B891002409F1F6
:1003B000040A0AF1040B23460F270BF1040EC9E0CF
:1003C0000125A5402A40AA427DD1674ED1F804C03C
:1003D000ACEB0608B44532D014DCBCF1030F3AD0C4
:1003E00009DCBCF1000F2AD0BCF1010F1CD0BCF11C
:1003F000020F31D11DE0BCF1110F17D0BCF1120F6B
:100400002AD119E0B8F5881F19D006DCB8F5803F6D
:1004100015D0B8F5801F1FD111E0B8F5001F0ED020
:10042000B8F5041F18D10AE0CB6815E0CB681B1D96
:1004300012E0CB6808330FE0CB680C330CE08B681C
:100440002BB1012B4FF0080303D0456104E00423D6
:1004500002E0056100E00023FF2A01D8064601E022
:1004600000F104064FEA840501D9A5F12005D6F86C
:10047000008007FA05FC28EA0C0803FA05F548EAAB
:100480000508C6F800804D68ED0062D5374DAE69AD
:1004900046F00106AE61AD6924F0030605F00105E2
:1004A0000095334D06EB050CDCF80850A607360F17
:1004B00007FA06F825EA0805DFF8B880404503D1B9
:1004C0004FF0000817E044E0DFF8AC80404502D16F
:1004D0004FF001080FE0DFF8A480404502D14FF053
:1004E000020808E0DFF89880404502D14FF0030889
:1004F00001E04FF0040808FA06F848EA0508CCF8CD
:1005000008804D68D9F80060ED034D4601D51643CB
:1005100000E096432E604D68DAF80060AD03554662
:1005200001D5164300E096432E604D68DBF800606D
:10053000ED025D4601D5164300E096432E604D68FE
:10054000DEF80060AD02754601D5164300E0964323
:100550002E60641C0D682A46E5407FF431AFBDE88B
:10056000F88F00000004014000001110001002404C
:100570000000014000080140000C01400010014053
:10058000001401400AB1016170470904FBE7000053
:1005900001488068704700009C0000200248816884
:1005A00002781144816070479C000020074810B514
:1005B000016841F010010160032000F075F800208F
:1005C00000F006F800F024F8002010BD00200240E2
:1005D00070B50D4D04464FF47A712878B1FBF0F0F8
:1005E0000A490968B1FBF0F000F06FFC48B9102C23
:1005F00007D200222146501E00F036F800206C6021
:1006000070BD012070BD00009C000020A8000020EB
:100610000C4808B5816941F001018161816901F0EF
:1006200001010091C16941F08051C161C06900F0D0
:10063000805000900448416821F0E06141F0007171
:10064000416008BD0010024000000140002809DBA5
:1006500000F01F02012191404009800000F1E020DC
:10066000C0F8001170470000F0B40E4B1B680C4638
:10067000C3F30223C3F10705042D00D90425191D76
:10068000072901D2002300E0DB1E012606FA05F14E
:10069000491E214099409E40761E16403143F0BCD1
:1006A00001F08CB80CED00E0064900F00702086884
:1006B0004FF6FF03184040EA0220034A1043086047
:1006C000704700000CED00E00000FA052DE9F0474E
:1006D0000F46050061D0434E306800F00700B84275
:1006E00009D2306820F0070038433060306800F0ED
:1006F0000700B84251D128683B4C810712D540070A
:1007000003D5606840F4E06060602878000703D596
:10071000606840F4605060606068A96820F0F00094
:10072000084360602878C00728D06868012810D086
:100730002168022810D0890700292EDA616821F08B
:10074000030101436160FFF723FF804641F28839CE
:100750000DE021688903EFE78901EDE7FFF718FF56
:10076000A0EB0801494502D90320BDE8F087606885
:10077000696800F00C00B0EB810FEFD1306800F039
:100780000700B8420BD9306820F0070038433060CA
:10079000306800F00700B84201D00120E5E7287872
:1007A000400705D56068E96820F4E06008436060B0
:1007B0002878000706D56068296920F4605040EA6F
:1007C000C100606000F038F86168084AC1F30311A5
:1007D000515CC8400649086006480068FFF7F8FE0B
:1007E0000020C2E70020024000100240E824000878
:1007F000A8000020A00000200448054900684968BE
:10080000044AC1F30221515CC8407047A80000208F
:1008100000100240F82400080448054900684968AF
:10082000044AC1F3C221515CC8407047A8000020AF
:1008300000100240F824000812A185B00FC98DE80D
:100840000F0014A0144A006804905168134801F086
:100850000C03042B10D0082B0ED1C1F38343C90322
:100860001DF803000AD5516804AAC1F34041515C48
:100870000A4A5043B0FBF1F005B0704708494843BD
:10088000FAE7000002030405060708090A0B0C0D2D
:100890000E0F1010010200000010024000127A003A
:1008A00000093D002DE9F84F040070D02078C04DBC
:1008B000C00749D06868C0F38100012807D0686884
:1008C000C0F38100022809D16868C00306D52868F2
:1008D000800339D560680028E7D035E06068B0F55E
:1008E000803F0BD010B1B0F5A02F11D0286820F4B4
:1008F00080302860286820F4802002E0286840F4D6
:1009000080302860606890B1FFF742FE06460AE03A
:10091000286840F480202860F0E700BFFFF738FE29
:10092000801B642873D828688003F7D50CE0FFF794
:100930002FFE064605E000BFFFF72AFE801B642855
:10094000F0D828688003F7D420789A4E80074FF0BB
:1009500001094FF0000839D5686810F00C0F07D076
:100960006868C0F38100022809D16868C00306D412
:100970002868800714D52069012808D110E0206973
:10098000B0B1C6F80090FFF703FE074605E00AE1A4
:10099000FFF7FEFDC01B0228C4D828688007F7D5E2
:1009A0002868616920F0F80040EAC10028600DE085
:1009B000C6F80080FFF7ECFD074604E0FFF7E8FD0E
:1009C000C01B022823D828688007F7D420780007A6
:1009D0002CD57948A169D9B1C0F80090FFF7D8FDAE
:1009E000074604E0FFF7D4FDC01B02280FD8686A51
:1009F0008007F7D571484FF4FA510068B0FBF1F069
:100A0000009000BF0098411E0091FAD20EE080E0F5
:100A1000C0F80080FFF7BCFD074604E0FFF7B8FD13
:100A2000C01B022875D8686A8007F7D42078400771
:100A300060D5E8690027C00008D4E86940F080501C
:100A4000E861E869012700F0805000905C48016887
:100A5000C90513D40168834641F480710160FFF732
:100A600097FD824606E000BFFFF792FDA0EB0A006B
:100A700064284ED8DBF80000C005F5D5E0680128F1
:100A80000AD008B1052813D0286A20F00100286296
:100A9000286A20F0040002E0286A40F00100286281
:100AA000E06841F2883B98B1FFF772FD82460BE0A7
:100AB000286A40F004002862EEE700BFFFF768FDF7
:100AC000A0EB0A0159455AD8286A8007F6D50CE0F0
:100AD000FFF75EFD824605E0FFF75AFDA0EB0A0135
:100AE00059454CD8286A8007F6D41FB1E86920F030
:100AF0008050E861E06988B36968C1F38101022927
:100B000044D00228C6F8608004D0FFF741FD0446B7
:100B100038E034E0FFF73CFD074604E0FFF738FD1E
:100B2000C01B02282BD828688001F7D4206AB0F5B2
:100B3000803F05D16868A16820F4003008436860F0
:100B4000D4E908010843696821F474110843686016
:100B5000C6F86090FFF71CFD044606E025E000BFE4
:100B6000FFF716FD001B022809D828688001F7D579
:100B70001BE000BFFFF70CFD001B022802D9032079
:100B8000BDE8F88F28688001F4D40EE00128F7D082
:100B90006868226A00F48031914204D1616A00F4ED
:100BA0007010884201D00120EAE70020E8E7000049
:100BB000001002400000424280044242A80000208F
:100BC0000070004070B5040009D0606A002540B193
:100BD00025616561A56294F8510040B10CE00120E7
:100BE00070BD6068B0F5827FF4D0E561F2E784F80B
:100BF0005050204600F040F8022084F85100206850
:100C0000016821F040010160A088218900F4827010
:100C100001F404410843A18901F400610843217CE7
:100C200001F002010843217D01F001010843218BFD
:100C300001F400710843217F01F03801084394F862
:100C4000201001F080010843218D01F40051084378
:100C500021680860A069042101EA10402168486009
:100C60002068C16921F40061C1616565012084F8D3
:100C70005100002070BD000030B585B00024009404
:100C800001940294039400681449884223D11448C3
:100C9000816941F480518161816901F4805104913D
:100CA000816941F00401816180690E4D00F004000A
:100CB0000490A02000900220019003200390694638
:100CC0002846FFF76FFB4020CDE90004694628461F
:100CD0000294FFF767FB05B030BD00000030014013
:100CE00000100240000801402DE9F84F044690F83A
:100CF000500000270A9E1D4692468B464FF0010980
:100D000001280ED0012084F85000FFF741FC8046F6
:100D100094F85100616801280CD0B1F5827F07D1A9
:100D200002E00220BDE8F88FA16809B9042801D0CB
:100D30000227C2E0BBF1000F27D0BAF1000F24D088
:100D40001DB394F85100042802D0052084F8510006
:100D500000206065C4F838A0E587A587C4F830B0E6
:100D6000E586A5862064606420680168490603D48E
:100D7000016841F040010160E068B0F5006F606813
:100D800005D0E8B3012D46D07FE0012795E008B1FA
:100D9000012D39D1206B21680088C860206B801C30
:100DA0002063E08E401EE0862EE02068816889077F
:100DB0000FD5E18E69B1B9F1010F0AD1216B098814
:100DC000C160206B801C2063E08E401EE0864FF0E7
:100DD000000920688168C9070CD0E18F51B1C06853
:100DE000A16B0880A06B801CA063E08F401EE08791
:100DF0004FF00109FFF7CCFBA0EB0800B04200E088
:100E000009E001D3701C50D1E08E0028CDD1E08FD5
:100E10000028CAD13FE0206B216800780873206B5E
:100E2000401C2063E08E401EE0862EE02068816832
:100E300089070FD5E18E69B1B9F1010F0AD1216B94
:100E400009780173206B401C2063E08E401EE08611
:100E50004FF0000920688168C9070CD0E18F51B1BB
:100E6000C068A16B0870A06B401CA063E08F401E9F
:100E7000E0874FF00109FFF78BFBA0EB0800B042C1
:100E800002D3701C01D010E07EB1E08E0028CDD1DD
:100E9000E08F0028CAD142463146204600F0ABFA26
:100EA00028B101272020606507E0032705E0A0683E
:100EB00018B92068C16880680090012084F851004A
:100EC000002084F8500038462CE710B5401EB0F1E1
:100ED000807F01D3012010BD4FF0E02460610F211D
:100EE000601700F06BFC0020A0610720206100204B
:100EF00010BD704770470000F8B5026804461068DE
:100F0000D168536910F00F0F4FF0000553D003F074
:100F1000010601F4907737435FD0C20705D0CA05B8
:100F200003D5226C42F001022264420705D5DA079C
:100F300003D0226C42F002022264820705D5DA0750
:100F400003D0226C42F004022264020707D501F0AC
:100F50002002324303D0226C42F008022264226C49
:100F6000002A34D0800604D5880602D5204600F039
:100F700020FB20684069216CC0F38010090700D471
:100F800030B3204600F0FDFA2068416949061BD5C0
:100F9000416921F040014161A06BA8B1584941630A
:100FA000A06BFFF7A1F9002811D0A06B416B01B035
:100FB000BDE8F040084783060FD58B060DD52046C7
:100FC000BDE8F84000F0F5BA2046FFF793FFF8BD02
:100FD0002046FFF78FFF2564F8BD266B2023012EE6
:100FE00052D1C60650D5CE064ED510685068009036
:100FF000506940062AD5A16B086840680004000CBF
:10100000EAD0A68D8642E7D9E0858869202818D0E5
:10101000D06820F48070D0602068416921F001011F
:1010200041612068416921F04001416184F83E300E
:1010300025632068C16821F01001C160A06BFFF733
:1010400030F9A08DE18D401A81B219E0A08DE18DBB
:10105000401A81B2E08D0028BED00029BCD0D068F3
:1010600020F49070D0602068426922F00102426151
:1010700084F83E3025632068C26822F01002C26006
:101080002046FFF736FFF8BD05062BD50D0629D5FE
:1010900094F83D002128F6D1A068B0F5805F01D119
:1010A0002069B0B1206A411C216221680078486043
:1010B000E08C401E0004000CE084E4D12068C1688C
:1010C00021F08001C1602068C16841F04001C16029
:1010D000F8BD206A0088C0F308005060206A801CB8
:1010E0002062E5E74006F3D54806F1D5D1682046F1
:1010F00021F04001D16084F83D3000F0D0F8F8BD17
:101100007315000870B5040004D094F83D00002564
:1011100010B106E0012070BD84F83C50204600F07C
:1011200023F8242084F83D002068C16821F4005190
:10113000C160204600F098FA2068016921F49041CE
:1011400001612068416921F02A0141612068C1687C
:1011500041F40051C1602564202084F83D0084F8EA
:101160003E00002070BD000030B585B00024009422
:101170000194029403940068184988422CD11848BD
:10118000816941F480418161816901F48041049168
:10119000816941F0040181618069124D00F0040011
:1011A00004904FF4007000900220019003200390FF
:1011B00069462846FFF7F6F82815CDE90004694688
:1011C00028460294FFF7EEF8002211462520FFF78B
:1011D0004BFA2520FFF73AFA05B030BD0038014040
:1011E0000010024000080140704700002DE9F8435C
:1011F000044690F83D001F4616460D4620284CD167
:10120000C5B1BEB194F83C00012846D0012084F855
:101210003C004FF00008C4F84080212084F83D00D5
:10122000FFF7B6F9A6848146E684A068B0F5805F32
:1012300003D004E00120BDE8F883206928B12E46E0
:101240005FF0000584F83C800EE00026FAE780217C
:10125000204600F065FAA0B9AEB116F8010B21687E
:101260004860E08C401EE084E08C4B464FF000026A
:1012700000970028EBD14FF04001204600F050FAD3
:1012800030B10320D7E735F8020BC0F30800E6E7DA
:10129000202084F83D000020CDE70220CBE77047F6
:1012A000FEE700002DE9F04385B000252C480095AD
:1012B000019502950395816941F010018161816971
:1012C00001F010010491816941F02001816181697F
:1012D00001F020010491816941F00401816181697B
:1012E00001F004010491816941F008018161806984
:1012F0001C4F00F008004FF40054049000222146D7
:101300003846FFF73FF9DFF86080002210214046A1
:10131000FFF738F9DFF854904FF470460022314659
:101320004846FFF72FF900940124CDE901456946AD
:1013300038460394FFF736F810208DE831006946EF
:1013400040460394FFF72EF80096CDE90145694623
:1013500048460394FFF726F805B0BDE8F083000087
:10136000001002400010014000080140000C014044
:10137000104810B50E4901604FF4827141600021A0
:101380008160C1604FF400720161C0E9051208225A
:10139000C0E90721416281620A21C162FFF712FCA4
:1013A000002803D0BDE81040FEF779BF10BD000053
:1013B00000300140E80200200C4810B50A490160E5
:1013C0004FF461314160002181600C22C160C0E9AD
:1013D00004128161C161FFF795FE002803D0BDE8CA
:1013E0001040FEF75CBF10BD0038014040030020F4
:1013F000FEE7FEE7704738B50B4600920446002230
:10140000802100F00BF8002804D0606D40F020002F
:101410006065032038BDFF2000F05CB82DE9F8437B
:101420001E46914688460446089DFFF7B1F8401BCA
:10143000351AFFF7ADF8074625480068C0F3CB30F2
:10144000684338E0701C37D0FFF7A2F8C01BA842F1
:1014500003D215B1009860B32CE02068416821F0F8
:10146000E00141606068B0F5827F0BD1A068B0F503
:10147000004F02D0B0F5806F04D12068016821F0E0
:1014800040010160A06AB0F5005F09D120680168E1
:1014900021F4005101602068016841F400510160AD
:1014A000012084F85100002084F850000320BDE89A
:1014B000F8830025401E00902068816838EA01000A
:1014C00004D000214945BDD10020F0E70121F9E712
:1014D000A800002001B582B000208DF804004FF470
:1014E00080500090012301AA02A90648FFF7FCFBE7
:1014F00028B100224FF400510348FFF743F89DF84C
:1015000004000EBDE8020020001001407047FFF704
:1015100045B830B58FB028216846FEF74DFE14213E
:101520000AA8FEF749FE01210804CDE900100024B5
:10153000029402250491CDE907504FF44020099010
:101540006846FFF7AFF908B172B6FEE70F20CDE9A4
:101550000A054FF48060CDE90C4001210AA80E94E1
:10156000FFF7B4F8002801D072B6FEE70FB030BD27
:10157000704710B5406A0021C185C184FFF7BAFCED
:1015800010BD0168CA6822F49072CA6001684A6995
:1015900022F001024A61016B012904D10168CA6885
:1015A00022F01002CA60202180F83E100021016361
:1015B000704708B590F83E10222901D0022008BDDE
:1015C00082684FF480539A4201D1016921B1816A46
:1015D0009A421BD04AB10AE00268816A5268C2F39B
:1015E00008020A80816A891C08E0026972B10268F7
:1015F000526802F07F020A70816A491C8162C18DC3
:10160000491E0904090CC18503D019E0026852681B
:10161000F1E70168CA6822F02002CA600168CA685E
:1016200022F48072CA6001684A6922F001024A61AC
:10163000202180F83E10016B012903D0FFF7D4FD73
:10164000002008BD002101630168CA6822F0100271
:10165000CA6001680A68D20602D50A684968009122
:10166000818DFFF746FCEBE770B504460068016921
:10167000E26821F44051114301612169A0680843E7
:10168000616908432168CA6841F20C639A430243C6
:10169000CA6020684169A26921F440711143416127
:1016A0001E492068884202D1FFF7B6F801E0FFF733
:1016B000A3F800EBC00101EB001260686421800018
:1016C000B2FBF0F3B3FBF1F36FF018067343B2FB18
:1016D000F0F5B2FBF0F605EB8305322303EB0515BD
:1016E000B5FBF1F5B6FBF1F605F0F00505EB0615D7
:1016F000B2FBF0F6B2FBF0F0B0FBF1F06FF01802C5
:10170000504306EB800003EB0010B0FBF1F02168C2
:1017100000F00F002844886070BD000000380140D0
:101720002DE9F041984617460E460446069D1DE0F9
:10173000681C1BD02DB1FEF72BFFA0EB0800A842C0
:1017400014D92068C16821F4D071C1602068416952
:1017500021F001014161202084F83D0084F83E0021
:10176000002084F83C000320BDE8F0812068006878
:1017700036EA000004D00020B842D9D00020F3E7B8
:101780000120F9E70148FFF7B7BB00004003002044
:10179000FEE700000FB4084B10B504A902AA039895
:1017A00000F02CF8044602A9002000F052FA20466E
:1017B00010BC5DF814FB0000531C00080907090E5B
:1017C000002804DB00F1E02080F80014704700F0EE
:1017D0000F0000F1E02080F8141D704702E008C8F7
:1017E000121F08C1002AFAD170477047002001E09B
:1017F00001C1121F002AFBD1704700002DE9FF4FE5
:101800008DB00F460546002606E025280BD0DDE901
:101810000F1290476D1C761C28780028F5D111B066
:101820003046BDE8F08F0024A246A1460122E949D6
:1018300000E0044315F8013F203B02FA03F00842A0
:10184000F7D128782A2810D06FF02F022878A0F13D
:101850003001092914D80AEB8A0102EB410144F056
:10186000020400EB010A6D1CF0E701CF5FEA000AF9
:1018700003D544F40054CAF1000A44F002046D1C7C
:1018800028782E2817D115F8010F44F004042A28CF
:101890000ED06FF02F022878A0F1300109290AD864
:1018A00009EB890102EB410100EB01096D1CF2E734
:1018B00057F8049B6D1C28786C280FD006DC4C2848
:1018C00017D068280DD06A2814D104E0742810D0ED
:1018D0007A280FD10DE044F400140AE044F4801497
:1018E00001E044F440146978814202D104F5801487
:1018F0006D1C6D1C28786E281ED00CDC632830D03F
:1019000004DC00288BD0582811D19FE0642867D0D0
:1019100069280CD164E073282DD004DC6F2872D0C4
:10192000702804D194E075286ED078286DD0DDE958
:101930000F129047761C4BE1C4F30250022806D0E8
:10194000032809D0042801CF09D0066040E101CF67
:10195000F117C0E900613BE101CF068038E1067074
:1019600036E117F8040B8DF8000000208DF8010017
:10197000EB46012003E057F804BB4FF0FF3061074E
:101980004FF0000102D40DE008F1010188464945FD
:101990000FDA8045F8DB1BF808100029F4D108E0C5
:1019A00008F1010188468142FADB1BF80810002982
:1019B000F6D1DDE90F23AAEB08008146214600F0AD
:1019C00031F9304400EB080604E0DDE90F121BF8A2
:1019D000010B9047B8F10108F7D221464846F2E0E2
:1019E0000A21C4F302524FF0000B0891022A04D0DE
:1019F00001CFC117032A09D00AE0FF1D27F007070E
:101A0000F7E8020108E02CE01EE01FE000B2C11779
:101A1000042A01D140B2C117021E71F1000206DA98
:101A20000023D0EB030063EB01012D2202E022052D
:101A300004D52B228DF82420012203E0E20701D0F7
:101A40002022F7E7904653E00A210BE0102109E03D
:101A500010214FF0000B44F004044FF008090891E6
:101A600003E008214FF0000B0891C4F30252022A50
:101A700004D001CF0021032A06D006E0FF1D27F085
:101A80000707F7E8020103E080B2042A00D1C0B2E0
:101A90004FF0000822072BD52A78702A07D0DDF8EE
:101AA00020C08CF0100C5CEA0B0C05D00EE040223C
:101AB0008DF82420012208E050EA010306D03023EB
:101AC0008DF824308DF8252002229046089B83F063
:101AD000080353EA0B030BD150EA010201D162075C
:101AE00006D530228DF824204FF00108A9F1010914
:101AF0002A78582A04D038A20B9208AA0A920BE03E
:101B00003AA2F9E75B46089AFEF775FB0B9B9B5CD4
:101B10000A9A521E0A92137050EA0102F2D10A98F0
:101B2000ADEB000000F1200B600702D524F48034F7
:101B300001E04FF00109D94502DDA9EB0B0000E0FF
:101B4000002000EB0B0141440890AAEB010AE003DE
:101B500006D4DDE90F232146504600F063F8064421
:101B60004FF0000908E009A911F80900DDE90F129A
:101B7000904709F10109761CC145F4DBE0030CD55F
:101B8000DDE90F232146504600F04CF8064404E0FE
:101B9000DDE90F1230209047761C0899481E089006
:101BA0000029F5DC08E00A980A990078491C0A9196
:101BB000DDE90F129047761CBBF10001ABF1010B80
:101BC000F1DC21465046DDE90F2300F019F8064408
:101BD0006D1C21E6092801003031323334353637A7
:101BE0003839616263646566000000003031323369
:101BF0003435363738394142434445460000000009
:101C00002DE9F041044600251E461746880404D4F9
:101C100005E039462020B0476D1C641EF9D52846E2
:101C2000BDE8F0812DE9F041044600251E469046AE
:101C3000C80301D5302700E02027880404D505E03B
:101C400041463846B0476D1C641EF9D52846BDE8AC
:101C5000F0810A68531C0B60107070477FB5002537
:101C600000F10E041C2963D921884FF48070814251
:101C70005ED1618808295BD1E188814258D1042274
:101C80002D4904F11800FEF7A9FA002850D1A07AD6
:101C9000637B227BE17A8DE80F00637A227A27A1A9
:101CA0003348FFF777FD3248FEF791FA82B264239A
:101CB0002F493048FFF79AFA617C207CCDE900017A
:101CC000E37BA27B2CA12A48FFF764FD2848FEF79E
:101CD0007EFA82B2642326492648FFF787FA207DE0
:101CE000E37DA27D617D8DE80F00E37CA27C28A1CD
:101CF0001F48FFF74FFD1E48FEF769FA82B26423C2
:101D00001B491C48FFF772FAE17EA07ECDE9000175
:101D1000637E227E28A11648FFF73CFD1448FEF79B
:101D200056FA82B2642312491248FFF75FFA01257E
:101D300004B0284670BD0000040000200D0A726542
:101D400071756573740D0A6D61635F73726320252D
:101D50003032583A253032583A253032583A253008
:101D600032583A253032583A253032580D0A0000A0
:101D7000AC0000204003002069705F73726320256F
:101D8000642E25642E25642E25640D0A00000000B3
:101D90006D61635F64737420253032583A253032A8
:101DA000583A253032583A253032583A2530325890
:101DB0003A253032580D0A0069705F64737420252B
:101DC000642E25642E25642E25640D0A0000000073
:101DD0004FF400728282D0F816200262428B828415
:101DE000074A1C211368C0F8163092884283C269E2
:101DF000C0F82620034A5268C26100F03BBA0000D6
:101E00001000002000000020002205E030F8023B16
:101E1000891E5BBA1A4489B20029F7D102E090B258
:101E200000EB1242100CFAD150BAC04380B2704796
:101E300000E0401E0028FCD17047000070B50A4D3C
:101E400000F06004287884420CD003221F21A020D7
:101E500000F05AF962092C70BDE870401F21802003
:101E600000F052B970BD00000800002010B501223A
:101E700051033E48FEF786FBFF210022084600F092
:101E800043F90220FEF77CFA1D21002000F0F4F84F
:101E90000028F9D00021082000F062F900210C2070
:101EA00000F05EF940F6FF310A2000F059F94FF4D6
:101EB0004061042000F054F941F2FF11062000F0C7
:101EC0004FF9382000F0FAF840F00101382000F016
:101ED00054F90D21C02000F050F90021C12000F07C
:101EE0004CF93222C221802000F00EF940F6124156
:101EF000C62000F035F91221C42000F03EF940F26E
:101F0000DC51CA2000F02CF9194CE420217800F0B3
:101F100034F96178E52000F030F9A178E22000F092
:101F20002CF9E178E32000F028F92179E02000F095
:101F300024F96179E12000F020F94FF4807110203C
:101F400000F0FEF840F27641142000F0F9F81F206E
:101F5000FFF774FFC0221B21802000F0D5F8042277
:101F60001F21BDE81040802000F0CEB800100140D5
:101F7000100000202DE9FC4107460E4600243920C0
:101F800000F09CF880B31A4DA88881B2002000F0C0
:101F9000E7F86946062000F051F8BDF800006860D7
:101FA000BDF80200001F84B2B44200D93446BDF827
:101FB0000400000601D4002403E03946204600F066
:101FC0003DF8002038556868401EB0F5406F02DBD0
:101FD00040F6FF3100E081B20C2000F0C1F8402251
:101FE0001E21802000F090F82046BDE8FC81000012
:101FF0000800002070B50C4605461F21002000F0A7
:102000003BF84FF44061022000F0AAF804F540606C
:1020100081B2062000F0A4F807A1012000F058F8D2
:102020002946204600F054F8BDE8704008221F21E0
:10203000802000F069B800000000000070B50D4E6F
:102040000C460546002210213046FEF79BFA3A2046
:10205000FFF740FA04E00020FFF73CFA04F8010B18
:102060006D1EADB2F7D23046BDE87040012210219E
:10207000FEF788BA0008014070B50F4E0C460546C1
:10208000002210213046FEF77DFA04F01F0028439D
:10209000FFF720FA0020FFF71DFA200602D5FF20E7
:1020A000FFF718FAFFF7B7F904460122102130466E
:1020B000FEF768FA204670BD0008014010B50446DE
:1020C000FFF7BCFE2146BDE810400020FFF7D4BF5B
:1020D00070B50C4E0C460546002210213046FEF726
:1020E00051FA7A2002E000BF14F8010BFFF7F2F971
:1020F0006D1EADB2F8D23046BDE87040012210210D
:10210000FEF740BA000801402DE9F0410B4E14469D
:102110000D460746002210213046FEF733FA05F03F
:102120001F003843FFF7D6F92046FFF7D3F93046B2
:10213000BDE8F04101221021FEF724BA0008014059
:1021400010B50C460146D42000F017F8E1B2D620B5
:1021500000F013F8EA20FFF7B1FFC007FAD110BD75
:1021600070B50D460446C9B200F007F8290A641C90
:10217000E0B2BDE87040AFF3008070B50C46054694
:10218000FFF75CFE22462946BDE870404020FFF77D
:10219000BBBF000030B58BB00D4604460E295ED99A
:1021A000A089B0F5C16F2CD160792179E278CDE9B1
:1021B00008100A950792E07A0DF10C0CA37862786A
:1021C00021788CE80F00207AA27A617A8DE80700E6
:1021D000E379A27923492448FFF7DCFA2248FDF786
:1021E000F6FF82B2642320492048FEF7FFFFA5F1E5
:1021F0000E0081B22046FFF731FD10B12046FFF7F7
:10220000E7FDA08908282AD160792179E278CDE913
:1022100008100A950792E07A0DF10C0CA378627809
:1022200021788CE80F00207AA27A617A8DE8070085
:10223000E379A2790E490C48FFF7ACFA0A48FDF79A
:10224000C6FF82B2642308490848FEF7CFFF143D59
:102250000BB0A9B22046BDE8304000F05BB80BB02F
:1022600030BD000048250008AC00002040030020DD
:1022700000250008D0F80620026042898280054AC5
:102280000E3189B21368C0F8063092884281FFF798
:10229000B1BE000010000020024A92FBF0F090FB5B
:1022A000F1F07047008793032DE9F04100270E46B7
:1022B000054600F1220408291CD32078082819D1EA
:1022C0000EA11248FFF766FA1048FDF780FF82B2B0
:1022D00064230E490E48FEF789FF002020706080BD
:1022E00031462046FFF790FD60801436B1B2284693
:1022F00000F032F83846BDE8F081000069636D7087
:1023000020726571756573740D0A0000AC000020C1
:102310004003002070B5054600F10E04807B0026C6
:10232000452814D104220B4904F11000FDF756FF93
:1023300068B9608840BA143881B2607A012806D141
:102340002846FFF7B1FF03490120091F0860304606
:1023500070BD0000040000202DE9F041054600F1A9
:102360000E0448BA60800027E780802020726781D1
:10237000E068206107480E4614214068E06020466E
:10238000FFF742FD608131462846FFF773FF38466C
:10239000BDE8F08100000020FEF708F9FFF7B9F86A
:1023A000FEF780FFFEF7E4FFFFF706F800F028F8DD
:1023B000DFF840A0104C114D4FF400594FF0FF379B
:1023C0004FF001080026012249465046FEF7DAF890
:1023D00000F02AF828680028F5D0206800F036F8C8
:1023E0002068002801DD276001E0C4F800802E602D
:1023F000E9E7000000100140180000200000002064
:1024000010B56423082204A10648FEF7EFFEBDE8DC
:102410001040FFF72BBD00003132333435360D0A42
:10242000000000004003002070B5074C4FF4007519
:1024300002E02046FFF7AEFE29460348FFF79AFD6B
:102440000100F6D170BD0000E80000202DE9F04148
:10245000042106460D022846FFF71EFF0024C1177F
:1024600002222346FDF760FE0746002E01DD2046CE
:1024700007E0C4F10800C11700EB517121F007011A
:10248000401A00F00FF83846FFF7D2FC641CE01742
:1024900004EB507020F00700241A6D1E002DE4DCC0
:1024A000BDE8F08170B50E490E4D01EB00144FF4FC
:1024B000004122782846FEF765F822794FF48041E2
:1024C0002846FEF75FF8227A69142846FEF75AF884
:1024D000227BA9142846BDE87040FEF753B80000DF
:1024E0001C000020000C0140000000000000000063
:1024F00001020304060708090000000001020304AA
:10250000253032583A253032583A253032583A255B
:102510003032583A253032583A253032582D25304D
:1025200032583A253032583A253032583A2530322E
:10253000583A253032583A253032583B2025643BF2
:102540002069700D0A000000253032583A253032DB
:10255000583A253032583A253032583A25303258D8
:102560003A253032582D253032583A253032583AF3
:10257000253032583A253032583A253032583A25EB
:102580003032583B2025643B206172700D0A0000F8
:10259000B025000800000020AC000000DC17000897
:1025A0005C260008AC000020DC060000EC170008E8
:1025B00000000000C0A801C50000000000000000ED
:1025C000001542BFF05100000100000000000000B3
:1025D00000000000000000000100000000000000FA
:1025E00000000000010000000100000000000000E9
:1025F00000000000010000000000000000000000DA
:1026000001000000010000000000000000000000C8
:1026100001000000000000000000000001000000B8
:1026200001000000000000000000000001000000A8
:102630000000000000000000000000000100000099
:102640000000000000000000010000000100000088
:0C26500010000000000000000024F40056
:04000005080000ED02
:00000001FF
